{
  "contractName": "NFTMarketplace",
  "abi": [
    {
      "inputs": [],
      "stateMutability": "nonpayable",
      "type": "constructor"
    },
    {
      "anonymous": false,
      "inputs": [
        {
          "indexed": true,
          "internalType": "address",
          "name": "owner",
          "type": "address"
        },
        {
          "indexed": true,
          "internalType": "address",
          "name": "approved",
          "type": "address"
        },
        {
          "indexed": true,
          "internalType": "uint256",
          "name": "tokenId",
          "type": "uint256"
        }
      ],
      "name": "Approval",
      "type": "event"
    },
    {
      "anonymous": false,
      "inputs": [
        {
          "indexed": true,
          "internalType": "address",
          "name": "owner",
          "type": "address"
        },
        {
          "indexed": true,
          "internalType": "address",
          "name": "operator",
          "type": "address"
        },
        {
          "indexed": false,
          "internalType": "bool",
          "name": "approved",
          "type": "bool"
        }
      ],
      "name": "ApprovalForAll",
      "type": "event"
    },
    {
      "anonymous": false,
      "inputs": [
        {
          "indexed": true,
          "internalType": "uint256",
          "name": "tokenId",
          "type": "uint256"
        },
        {
          "indexed": false,
          "internalType": "address",
          "name": "seller",
          "type": "address"
        },
        {
          "indexed": false,
          "internalType": "address",
          "name": "owner",
          "type": "address"
        },
        {
          "indexed": false,
          "internalType": "string",
          "name": "uri",
          "type": "string"
        },
        {
          "indexed": false,
          "internalType": "string",
          "name": "landName",
          "type": "string"
        },
        {
          "indexed": false,
          "internalType": "uint256",
          "name": "lat",
          "type": "uint256"
        },
        {
          "indexed": false,
          "internalType": "uint256",
          "name": "lon",
          "type": "uint256"
        },
        {
          "indexed": false,
          "internalType": "uint256",
          "name": "price",
          "type": "uint256"
        },
        {
          "indexed": false,
          "internalType": "bool",
          "name": "sold",
          "type": "bool"
        }
      ],
      "name": "MarketItemCreated",
      "type": "event"
    },
    {
      "anonymous": false,
      "inputs": [
        {
          "indexed": true,
          "internalType": "address",
          "name": "from",
          "type": "address"
        },
        {
          "indexed": true,
          "internalType": "address",
          "name": "to",
          "type": "address"
        },
        {
          "indexed": true,
          "internalType": "uint256",
          "name": "tokenId",
          "type": "uint256"
        }
      ],
      "name": "Transfer",
      "type": "event"
    },
    {
      "inputs": [
        {
          "internalType": "address",
          "name": "to",
          "type": "address"
        },
        {
          "internalType": "uint256",
          "name": "tokenId",
          "type": "uint256"
        }
      ],
      "name": "approve",
      "outputs": [],
      "stateMutability": "nonpayable",
      "type": "function"
    },
    {
      "inputs": [
        {
          "internalType": "address",
          "name": "owner",
          "type": "address"
        }
      ],
      "name": "balanceOf",
      "outputs": [
        {
          "internalType": "uint256",
          "name": "",
          "type": "uint256"
        }
      ],
      "stateMutability": "view",
      "type": "function",
      "constant": true
    },
    {
      "inputs": [
        {
          "internalType": "uint256",
          "name": "tokenId",
          "type": "uint256"
        }
      ],
      "name": "getApproved",
      "outputs": [
        {
          "internalType": "address",
          "name": "",
          "type": "address"
        }
      ],
      "stateMutability": "view",
      "type": "function",
      "constant": true
    },
    {
      "inputs": [
        {
          "internalType": "address",
          "name": "owner",
          "type": "address"
        },
        {
          "internalType": "address",
          "name": "operator",
          "type": "address"
        }
      ],
      "name": "isApprovedForAll",
      "outputs": [
        {
          "internalType": "bool",
          "name": "",
          "type": "bool"
        }
      ],
      "stateMutability": "view",
      "type": "function",
      "constant": true
    },
    {
      "inputs": [],
      "name": "name",
      "outputs": [
        {
          "internalType": "string",
          "name": "",
          "type": "string"
        }
      ],
      "stateMutability": "view",
      "type": "function",
      "constant": true
    },
    {
      "inputs": [
        {
          "internalType": "uint256",
          "name": "tokenId",
          "type": "uint256"
        }
      ],
      "name": "ownerOf",
      "outputs": [
        {
          "internalType": "address",
          "name": "",
          "type": "address"
        }
      ],
      "stateMutability": "view",
      "type": "function",
      "constant": true
    },
    {
      "inputs": [
        {
          "internalType": "address",
          "name": "from",
          "type": "address"
        },
        {
          "internalType": "address",
          "name": "to",
          "type": "address"
        },
        {
          "internalType": "uint256",
          "name": "tokenId",
          "type": "uint256"
        }
      ],
      "name": "safeTransferFrom",
      "outputs": [],
      "stateMutability": "nonpayable",
      "type": "function"
    },
    {
      "inputs": [
        {
          "internalType": "address",
          "name": "from",
          "type": "address"
        },
        {
          "internalType": "address",
          "name": "to",
          "type": "address"
        },
        {
          "internalType": "uint256",
          "name": "tokenId",
          "type": "uint256"
        },
        {
          "internalType": "bytes",
          "name": "_data",
          "type": "bytes"
        }
      ],
      "name": "safeTransferFrom",
      "outputs": [],
      "stateMutability": "nonpayable",
      "type": "function"
    },
    {
      "inputs": [
        {
          "internalType": "address",
          "name": "operator",
          "type": "address"
        },
        {
          "internalType": "bool",
          "name": "approved",
          "type": "bool"
        }
      ],
      "name": "setApprovalForAll",
      "outputs": [],
      "stateMutability": "nonpayable",
      "type": "function"
    },
    {
      "inputs": [
        {
          "internalType": "bytes4",
          "name": "interfaceId",
          "type": "bytes4"
        }
      ],
      "name": "supportsInterface",
      "outputs": [
        {
          "internalType": "bool",
          "name": "",
          "type": "bool"
        }
      ],
      "stateMutability": "view",
      "type": "function",
      "constant": true
    },
    {
      "inputs": [],
      "name": "symbol",
      "outputs": [
        {
          "internalType": "string",
          "name": "",
          "type": "string"
        }
      ],
      "stateMutability": "view",
      "type": "function",
      "constant": true
    },
    {
      "inputs": [
        {
          "internalType": "uint256",
          "name": "tokenId",
          "type": "uint256"
        }
      ],
      "name": "tokenURI",
      "outputs": [
        {
          "internalType": "string",
          "name": "",
          "type": "string"
        }
      ],
      "stateMutability": "view",
      "type": "function",
      "constant": true
    },
    {
      "inputs": [
        {
          "internalType": "address",
          "name": "from",
          "type": "address"
        },
        {
          "internalType": "address",
          "name": "to",
          "type": "address"
        },
        {
          "internalType": "uint256",
          "name": "tokenId",
          "type": "uint256"
        }
      ],
      "name": "transferFrom",
      "outputs": [],
      "stateMutability": "nonpayable",
      "type": "function"
    },
    {
      "inputs": [
        {
          "internalType": "string",
          "name": "tokenURI",
          "type": "string"
        },
        {
          "internalType": "string",
          "name": "landName",
          "type": "string"
        },
        {
          "internalType": "uint256",
          "name": "lat",
          "type": "uint256"
        },
        {
          "internalType": "uint256",
          "name": "lon",
          "type": "uint256"
        },
        {
          "internalType": "uint256",
          "name": "price",
          "type": "uint256"
        }
      ],
      "name": "CreateLandToken",
      "outputs": [
        {
          "internalType": "uint256",
          "name": "",
          "type": "uint256"
        }
      ],
      "stateMutability": "payable",
      "type": "function",
      "payable": true
    },
    {
      "inputs": [
        {
          "internalType": "uint256",
          "name": "tokenId",
          "type": "uint256"
        },
        {
          "internalType": "uint256",
          "name": "price",
          "type": "uint256"
        }
      ],
      "name": "SellYourLandToken",
      "outputs": [],
      "stateMutability": "payable",
      "type": "function",
      "payable": true
    },
    {
      "inputs": [
        {
          "internalType": "uint256",
          "name": "tokenId",
          "type": "uint256"
        }
      ],
      "name": "BuyLandToken",
      "outputs": [],
      "stateMutability": "payable",
      "type": "function",
      "payable": true
    },
    {
      "inputs": [],
      "name": "getOwnerOfMeta",
      "outputs": [
        {
          "internalType": "address",
          "name": "",
          "type": "address"
        }
      ],
      "stateMutability": "view",
      "type": "function",
      "constant": true
    },
    {
      "inputs": [
        {
          "internalType": "uint256",
          "name": "_listingPrice",
          "type": "uint256"
        }
      ],
      "name": "updateListingPrice",
      "outputs": [],
      "stateMutability": "payable",
      "type": "function",
      "payable": true
    },
    {
      "inputs": [],
      "name": "getListingPrice",
      "outputs": [
        {
          "internalType": "uint256",
          "name": "",
          "type": "uint256"
        }
      ],
      "stateMutability": "view",
      "type": "function",
      "constant": true
    },
    {
      "inputs": [
        {
          "internalType": "uint256",
          "name": "_tokenId",
          "type": "uint256"
        }
      ],
      "name": "getTokenDetails",
      "outputs": [
        {
          "components": [
            {
              "internalType": "uint256",
              "name": "tokenId",
              "type": "uint256"
            },
            {
              "internalType": "address payable",
              "name": "seller",
              "type": "address"
            },
            {
              "internalType": "address payable",
              "name": "owner",
              "type": "address"
            },
            {
              "internalType": "string",
              "name": "uri",
              "type": "string"
            },
            {
              "internalType": "string",
              "name": "landName",
              "type": "string"
            },
            {
              "internalType": "uint256",
              "name": "lat",
              "type": "uint256"
            },
            {
              "internalType": "uint256",
              "name": "lon",
              "type": "uint256"
            },
            {
              "internalType": "uint256",
              "name": "price",
              "type": "uint256"
            },
            {
              "internalType": "bool",
              "name": "sold",
              "type": "bool"
            }
          ],
          "internalType": "struct NFTMarketplace.Land",
          "name": "",
          "type": "tuple"
        }
      ],
      "stateMutability": "view",
      "type": "function",
      "constant": true
    },
    {
      "inputs": [],
      "name": "fetchAllTokens",
      "outputs": [
        {
          "components": [
            {
              "internalType": "uint256",
              "name": "tokenId",
              "type": "uint256"
            },
            {
              "internalType": "address payable",
              "name": "seller",
              "type": "address"
            },
            {
              "internalType": "address payable",
              "name": "owner",
              "type": "address"
            },
            {
              "internalType": "string",
              "name": "uri",
              "type": "string"
            },
            {
              "internalType": "string",
              "name": "landName",
              "type": "string"
            },
            {
              "internalType": "uint256",
              "name": "lat",
              "type": "uint256"
            },
            {
              "internalType": "uint256",
              "name": "lon",
              "type": "uint256"
            },
            {
              "internalType": "uint256",
              "name": "price",
              "type": "uint256"
            },
            {
              "internalType": "bool",
              "name": "sold",
              "type": "bool"
            }
          ],
          "internalType": "struct NFTMarketplace.Land[]",
          "name": "",
          "type": "tuple[]"
        }
      ],
      "stateMutability": "view",
      "type": "function",
      "constant": true
    },
    {
      "inputs": [],
      "name": "fetchMarketItems",
      "outputs": [
        {
          "components": [
            {
              "internalType": "uint256",
              "name": "tokenId",
              "type": "uint256"
            },
            {
              "internalType": "address payable",
              "name": "seller",
              "type": "address"
            },
            {
              "internalType": "address payable",
              "name": "owner",
              "type": "address"
            },
            {
              "internalType": "string",
              "name": "uri",
              "type": "string"
            },
            {
              "internalType": "string",
              "name": "landName",
              "type": "string"
            },
            {
              "internalType": "uint256",
              "name": "lat",
              "type": "uint256"
            },
            {
              "internalType": "uint256",
              "name": "lon",
              "type": "uint256"
            },
            {
              "internalType": "uint256",
              "name": "price",
              "type": "uint256"
            },
            {
              "internalType": "bool",
              "name": "sold",
              "type": "bool"
            }
          ],
          "internalType": "struct NFTMarketplace.Land[]",
          "name": "",
          "type": "tuple[]"
        }
      ],
      "stateMutability": "view",
      "type": "function",
      "constant": true
    },
    {
      "inputs": [
        {
          "internalType": "address",
          "name": "_owner_address",
          "type": "address"
        }
      ],
      "name": "fetchMyNFTs",
      "outputs": [
        {
          "components": [
            {
              "internalType": "uint256",
              "name": "tokenId",
              "type": "uint256"
            },
            {
              "internalType": "address payable",
              "name": "seller",
              "type": "address"
            },
            {
              "internalType": "address payable",
              "name": "owner",
              "type": "address"
            },
            {
              "internalType": "string",
              "name": "uri",
              "type": "string"
            },
            {
              "internalType": "string",
              "name": "landName",
              "type": "string"
            },
            {
              "internalType": "uint256",
              "name": "lat",
              "type": "uint256"
            },
            {
              "internalType": "uint256",
              "name": "lon",
              "type": "uint256"
            },
            {
              "internalType": "uint256",
              "name": "price",
              "type": "uint256"
            },
            {
              "internalType": "bool",
              "name": "sold",
              "type": "bool"
            }
          ],
          "internalType": "struct NFTMarketplace.Land[]",
          "name": "",
          "type": "tuple[]"
        }
      ],
      "stateMutability": "view",
      "type": "function",
      "constant": true
    },
    {
      "inputs": [],
      "name": "fetchItemsListed",
      "outputs": [
        {
          "components": [
            {
              "internalType": "uint256",
              "name": "tokenId",
              "type": "uint256"
            },
            {
              "internalType": "address payable",
              "name": "seller",
              "type": "address"
            },
            {
              "internalType": "address payable",
              "name": "owner",
              "type": "address"
            },
            {
              "internalType": "string",
              "name": "uri",
              "type": "string"
            },
            {
              "internalType": "string",
              "name": "landName",
              "type": "string"
            },
            {
              "internalType": "uint256",
              "name": "lat",
              "type": "uint256"
            },
            {
              "internalType": "uint256",
              "name": "lon",
              "type": "uint256"
            },
            {
              "internalType": "uint256",
              "name": "price",
              "type": "uint256"
            },
            {
              "internalType": "bool",
              "name": "sold",
              "type": "bool"
            }
          ],
          "internalType": "struct NFTMarketplace.Land[]",
          "name": "",
          "type": "tuple[]"
        }
      ],
      "stateMutability": "view",
      "type": "function",
      "constant": true
    }
  ],
  "bytecode": "0x6080604052670de0b6b3a76400006009553480156200001d57600080fd5b506040518060400160405280601081526020017f4d657461766572736520546f6b656e73000000000000000000000000000000008152506040518060400160405280600481526020017f4d455454000000000000000000000000000000000000000000000000000000008152508160009080519060200190620000a292919062000105565b508060019080519060200190620000bb92919062000105565b50505033600a60006101000a81548173ffffffffffffffffffffffffffffffffffffffff021916908373ffffffffffffffffffffffffffffffffffffffff16021790555062000219565b8280546200011390620001e4565b90600052602060002090601f01602090048101928262000137576000855562000183565b82601f106200015257805160ff191683800117855562000183565b8280016001018555821562000183579182015b828111156200018257825182559160200191906001019062000165565b5b50905062000192919062000196565b5090565b5b80821115620001b157600081600090555060010162000197565b5090565b7f4e487b7100000000000000000000000000000000000000000000000000000000600052602260045260246000fd5b60006002820490506001821680620001fd57607f821691505b602082108103620002135762000212620001b5565b5b50919050565b61500380620002296000396000f3fe60806040526004361061014b5760003560e01c80636352211e116100b6578063aba566fd1161006f578063aba566fd1461049e578063ae677aa3146104ba578063b88d4fde146104d6578063c1e03728146104ff578063c87b56dd1461053c578063e985e9c5146105795761014b565b80636352211e146103895780636e54d776146103c657806370a08231146103e257806395d89b411461041f578063a22cb4651461044a578063a4aaa06c146104735761014b565b806312e855851161010857806312e855851461028657806323b872dd146102b15780632528b676146102da5780633478ef491461030557806342842e0e1461033557806345f8fa801461035e5761014b565b806301ffc9a71461015057806306fdde031461018d578063081812fc146101b8578063095ea7b3146101f55780630f08efe01461021e57806310afee1e14610249575b600080fd5b34801561015c57600080fd5b50610177600480360381019061017291906135a3565b6105b6565b60405161018491906135eb565b60405180910390f35b34801561019957600080fd5b506101a2610698565b6040516101af919061369f565b60405180910390f35b3480156101c457600080fd5b506101df60048036038101906101da91906136f7565b61072a565b6040516101ec9190613765565b60405180910390f35b34801561020157600080fd5b5061021c600480360381019061021791906137ac565b6107af565b005b34801561022a57600080fd5b506102336108c6565b6040516102409190613a03565b60405180910390f35b34801561025557600080fd5b50610270600480360381019061026b9190613a25565b610c67565b60405161027d9190613a03565b60405180910390f35b34801561029257600080fd5b5061029b61108e565b6040516102a89190613a61565b60405180910390f35b3480156102bd57600080fd5b506102d860048036038101906102d39190613a7c565b611098565b005b3480156102e657600080fd5b506102ef6110f8565b6040516102fc9190613a03565b60405180910390f35b61031f600480360381019061031a9190613c04565b611431565b60405161032c9190613a61565b60405180910390f35b34801561034157600080fd5b5061035c60048036038101906103579190613a7c565b61147a565b005b34801561036a57600080fd5b5061037361149a565b6040516103809190613a03565b60405180910390f35b34801561039557600080fd5b506103b060048036038101906103ab91906136f7565b6118bf565b6040516103bd9190613765565b60405180910390f35b6103e060048036038101906103db9190613cb7565b611970565b005b3480156103ee57600080fd5b5061040960048036038101906104049190613a25565b611b65565b6040516104169190613a61565b60405180910390f35b34801561042b57600080fd5b50610434611c1c565b604051610441919061369f565b60405180910390f35b34801561045657600080fd5b50610471600480360381019061046c9190613d23565b611cae565b005b34801561047f57600080fd5b50610488611cc4565b6040516104959190613765565b60405180910390f35b6104b860048036038101906104b391906136f7565b611cee565b005b6104d460048036038101906104cf91906136f7565b611f3f565b005b3480156104e257600080fd5b506104fd60048036038101906104f89190613e04565b611fd9565b005b34801561050b57600080fd5b50610526600480360381019061052191906136f7565b61203b565b6040516105339190613f53565b60405180910390f35b34801561054857600080fd5b50610563600480360381019061055e91906136f7565b61227c565b604051610570919061369f565b60405180910390f35b34801561058557600080fd5b506105a0600480360381019061059b9190613f75565b6123cd565b6040516105ad91906135eb565b60405180910390f35b60007f80ac58cd000000000000000000000000000000000000000000000000000000007bffffffffffffffffffffffffffffffffffffffffffffffffffffffff1916827bffffffffffffffffffffffffffffffffffffffffffffffffffffffff1916148061068157507f5b5e139f000000000000000000000000000000000000000000000000000000007bffffffffffffffffffffffffffffffffffffffffffffffffffffffff1916827bffffffffffffffffffffffffffffffffffffffffffffffffffffffff1916145b80610691575061069082612461565b5b9050919050565b6060600080546106a790613fe4565b80601f01602080910402602001604051908101604052809291908181526020018280546106d390613fe4565b80156107205780601f106106f557610100808354040283529160200191610720565b820191906000526020600020905b81548152906001019060200180831161070357829003601f168201915b5050505050905090565b6000610735826124cb565b610774576040517f08c379a000000000000000000000000000000000000000000000000000000000815260040161076b90614087565b60405180910390fd5b6004600083815260200190815260200160002060009054906101000a900473ffffffffffffffffffffffffffffffffffffffff169050919050565b60006107ba826118bf565b90508073ffffffffffffffffffffffffffffffffffffffff168373ffffffffffffffffffffffffffffffffffffffff160361082a576040517f08c379a000000000000000000000000000000000000000000000000000000000815260040161082190614119565b60405180910390fd5b8073ffffffffffffffffffffffffffffffffffffffff16610849612537565b73ffffffffffffffffffffffffffffffffffffffff161480610878575061087781610872612537565b6123cd565b5b6108b7576040517f08c379a00000000000000000000000000000000000000000000000000000000081526004016108ae906141ab565b60405180910390fd5b6108c1838361253f565b505050565b606060006108d460076125f8565b905060006108e260086125f8565b6108ec60076125f8565b6108f691906141fa565b90506000808267ffffffffffffffff81111561091557610914613ad9565b5b60405190808252806020026020018201604052801561094e57816020015b61093b61341a565b8152602001906001900390816109335790505b50905060005b84811015610c5c573073ffffffffffffffffffffffffffffffffffffffff16600b6000600184610984919061422e565b815260200190815260200160002060020160009054906101000a900473ffffffffffffffffffffffffffffffffffffffff1673ffffffffffffffffffffffffffffffffffffffff1603610c495760006001826109e0919061422e565b90506000600b600083815260200190815260200160002090508060405180610120016040529081600082015481526020016001820160009054906101000a900473ffffffffffffffffffffffffffffffffffffffff1673ffffffffffffffffffffffffffffffffffffffff1673ffffffffffffffffffffffffffffffffffffffff1681526020016002820160009054906101000a900473ffffffffffffffffffffffffffffffffffffffff1673ffffffffffffffffffffffffffffffffffffffff1673ffffffffffffffffffffffffffffffffffffffff168152602001600382018054610acc90613fe4565b80601f0160208091040260200160405190810160405280929190818152602001828054610af890613fe4565b8015610b455780601f10610b1a57610100808354040283529160200191610b45565b820191906000526020600020905b815481529060010190602001808311610b2857829003601f168201915b50505050508152602001600482018054610b5e90613fe4565b80601f0160208091040260200160405190810160405280929190818152602001828054610b8a90613fe4565b8015610bd75780601f10610bac57610100808354040283529160200191610bd7565b820191906000526020600020905b815481529060010190602001808311610bba57829003601f168201915b505050505081526020016005820154815260200160068201548152602001600782015481526020016008820160009054906101000a900460ff161515151581525050848681518110610c2c57610c2b614284565b5b6020026020010181905250600185610c44919061422e565b945050505b8080610c54906142b3565b915050610954565b508094505050505090565b60606000610c7560076125f8565b905060008060005b83811015610d1d578573ffffffffffffffffffffffffffffffffffffffff16600b6000600184610cad919061422e565b815260200190815260200160002060020160009054906101000a900473ffffffffffffffffffffffffffffffffffffffff1673ffffffffffffffffffffffffffffffffffffffff1603610d0a57600183610d07919061422e565b92505b8080610d15906142b3565b915050610c7d565b5060008267ffffffffffffffff811115610d3a57610d39613ad9565b5b604051908082528060200260200182016040528015610d7357816020015b610d6061341a565b815260200190600190039081610d585790505b50905060005b84811015611081578673ffffffffffffffffffffffffffffffffffffffff16600b6000600184610da9919061422e565b815260200190815260200160002060020160009054906101000a900473ffffffffffffffffffffffffffffffffffffffff1673ffffffffffffffffffffffffffffffffffffffff160361106e576000600182610e05919061422e565b90506000600b600083815260200190815260200160002090508060405180610120016040529081600082015481526020016001820160009054906101000a900473ffffffffffffffffffffffffffffffffffffffff1673ffffffffffffffffffffffffffffffffffffffff1673ffffffffffffffffffffffffffffffffffffffff1681526020016002820160009054906101000a900473ffffffffffffffffffffffffffffffffffffffff1673ffffffffffffffffffffffffffffffffffffffff1673ffffffffffffffffffffffffffffffffffffffff168152602001600382018054610ef190613fe4565b80601f0160208091040260200160405190810160405280929190818152602001828054610f1d90613fe4565b8015610f6a5780601f10610f3f57610100808354040283529160200191610f6a565b820191906000526020600020905b815481529060010190602001808311610f4d57829003601f168201915b50505050508152602001600482018054610f8390613fe4565b80601f0160208091040260200160405190810160405280929190818152602001828054610faf90613fe4565b8015610ffc5780601f10610fd157610100808354040283529160200191610ffc565b820191906000526020600020905b815481529060010190602001808311610fdf57829003601f168201915b505050505081526020016005820154815260200160068201548152602001600782015481526020016008820160009054906101000a900460ff16151515158152505084868151811061105157611050614284565b5b6020026020010181905250600185611069919061422e565b945050505b8080611079906142b3565b915050610d79565b5080945050505050919050565b6000600954905090565b6110a96110a3612537565b82612606565b6110e8576040517f08c379a00000000000000000000000000000000000000000000000000000000081526004016110df9061436d565b60405180910390fd5b6110f38383836126e4565b505050565b6060600061110660076125f8565b905060008060005b8381101561113857600183611123919061422e565b92508080611130906142b3565b91505061110e565b5060008267ffffffffffffffff81111561115557611154613ad9565b5b60405190808252806020026020018201604052801561118e57816020015b61117b61341a565b8152602001906001900390816111735790505b50905060005b848110156114265760006001826111ab919061422e565b90506000600b600083815260200190815260200160002090508060405180610120016040529081600082015481526020016001820160009054906101000a900473ffffffffffffffffffffffffffffffffffffffff1673ffffffffffffffffffffffffffffffffffffffff1673ffffffffffffffffffffffffffffffffffffffff1681526020016002820160009054906101000a900473ffffffffffffffffffffffffffffffffffffffff1673ffffffffffffffffffffffffffffffffffffffff1673ffffffffffffffffffffffffffffffffffffffff16815260200160038201805461129790613fe4565b80601f01602080910402602001604051908101604052809291908181526020018280546112c390613fe4565b80156113105780601f106112e557610100808354040283529160200191611310565b820191906000526020600020905b8154815290600101906020018083116112f357829003601f168201915b5050505050815260200160048201805461132990613fe4565b80601f016020809104026020016040519081016040528092919081815260200182805461135590613fe4565b80156113a25780601f10611377576101008083540402835291602001916113a2565b820191906000526020600020905b81548152906001019060200180831161138557829003601f168201915b505050505081526020016005820154815260200160068201548152602001600782015481526020016008820160009054906101000a900460ff1615151515815250508486815181106113f7576113f6614284565b5b602002602001018190525060018561140f919061422e565b94505050808061141e906142b3565b915050611194565b508094505050505090565b600061143d600761294a565b600061144960076125f8565b90506114553382612960565b61145f8188612b39565b61146d818888888888612bad565b8091505095945050505050565b61149583838360405180602001604052806000815250611fd9565b505050565b606060006114a860076125f8565b905060008060005b83811015611550573373ffffffffffffffffffffffffffffffffffffffff16600b60006001846114e0919061422e565b815260200190815260200160002060010160009054906101000a900473ffffffffffffffffffffffffffffffffffffffff1673ffffffffffffffffffffffffffffffffffffffff160361153d5760018361153a919061422e565b92505b8080611548906142b3565b9150506114b0565b5060008267ffffffffffffffff81111561156d5761156c613ad9565b5b6040519080825280602002602001820160405280156115a657816020015b61159361341a565b81526020019060019003908161158b5790505b50905060005b848110156118b4573373ffffffffffffffffffffffffffffffffffffffff16600b60006001846115dc919061422e565b815260200190815260200160002060010160009054906101000a900473ffffffffffffffffffffffffffffffffffffffff1673ffffffffffffffffffffffffffffffffffffffff16036118a1576000600182611638919061422e565b90506000600b600083815260200190815260200160002090508060405180610120016040529081600082015481526020016001820160009054906101000a900473ffffffffffffffffffffffffffffffffffffffff1673ffffffffffffffffffffffffffffffffffffffff1673ffffffffffffffffffffffffffffffffffffffff1681526020016002820160009054906101000a900473ffffffffffffffffffffffffffffffffffffffff1673ffffffffffffffffffffffffffffffffffffffff1673ffffffffffffffffffffffffffffffffffffffff16815260200160038201805461172490613fe4565b80601f016020809104026020016040519081016040528092919081815260200182805461175090613fe4565b801561179d5780601f106117725761010080835404028352916020019161179d565b820191906000526020600020905b81548152906001019060200180831161178057829003601f168201915b505050505081526020016004820180546117b690613fe4565b80601f01602080910402602001604051908101604052809291908181526020018280546117e290613fe4565b801561182f5780601f106118045761010080835404028352916020019161182f565b820191906000526020600020905b81548152906001019060200180831161181257829003601f168201915b505050505081526020016005820154815260200160068201548152602001600782015481526020016008820160009054906101000a900460ff16151515158152505084868151811061188457611883614284565b5b602002602001018190525060018561189c919061422e565b945050505b80806118ac906142b3565b9150506115ac565b508094505050505090565b6000806002600084815260200190815260200160002060009054906101000a900473ffffffffffffffffffffffffffffffffffffffff169050600073ffffffffffffffffffffffffffffffffffffffff168173ffffffffffffffffffffffffffffffffffffffff1603611967576040517f08c379a000000000000000000000000000000000000000000000000000000000815260040161195e906143ff565b60405180910390fd5b80915050919050565b3373ffffffffffffffffffffffffffffffffffffffff16600b600084815260200190815260200160002060020160009054906101000a900473ffffffffffffffffffffffffffffffffffffffff1673ffffffffffffffffffffffffffffffffffffffff1614611a14576040517f08c379a0000000000000000000000000000000000000000000000000000000008152600401611a0b90614491565b60405180910390fd5b6009543414611a58576040517f08c379a0000000000000000000000000000000000000000000000000000000008152600401611a4f90614523565b60405180910390fd5b6000600b600084815260200190815260200160002060080160006101000a81548160ff02191690831515021790555080600b60008481526020019081526020016000206007018190555033600b600084815260200190815260200160002060010160006101000a81548173ffffffffffffffffffffffffffffffffffffffff021916908373ffffffffffffffffffffffffffffffffffffffff16021790555030600b600084815260200190815260200160002060020160006101000a81548173ffffffffffffffffffffffffffffffffffffffff021916908373ffffffffffffffffffffffffffffffffffffffff160217905550611b566008612e24565b611b613330846126e4565b5050565b60008073ffffffffffffffffffffffffffffffffffffffff168273ffffffffffffffffffffffffffffffffffffffff1603611bd5576040517f08c379a0000000000000000000000000000000000000000000000000000000008152600401611bcc906145b5565b60405180910390fd5b600360008373ffffffffffffffffffffffffffffffffffffffff1673ffffffffffffffffffffffffffffffffffffffff168152602001908152602001600020549050919050565b606060018054611c2b90613fe4565b80601f0160208091040260200160405190810160405280929190818152602001828054611c5790613fe4565b8015611ca45780601f10611c7957610100808354040283529160200191611ca4565b820191906000526020600020905b815481529060010190602001808311611c8757829003601f168201915b5050505050905090565b611cc0611cb9612537565b8383612e80565b5050565b6000600a60009054906101000a900473ffffffffffffffffffffffffffffffffffffffff16905090565b6000600b60008381526020019081526020016000206007015490506000600b600084815260200190815260200160002060010160009054906101000a900473ffffffffffffffffffffffffffffffffffffffff169050670de0b6b3a764000082611d5891906145d5565b3414611d99576040517f08c379a0000000000000000000000000000000000000000000000000000000008152600401611d90906146a1565b60405180910390fd5b33600b600085815260200190815260200160002060020160006101000a81548173ffffffffffffffffffffffffffffffffffffffff021916908373ffffffffffffffffffffffffffffffffffffffff1602179055506001600b600085815260200190815260200160002060080160006101000a81548160ff0219169083151502179055506000600b600085815260200190815260200160002060010160006101000a81548173ffffffffffffffffffffffffffffffffffffffff021916908373ffffffffffffffffffffffffffffffffffffffff160217905550611e7d600861294a565b611e883033856126e4565b600a60009054906101000a900473ffffffffffffffffffffffffffffffffffffffff1673ffffffffffffffffffffffffffffffffffffffff166108fc6009549081150290604051600060405180830381858888f19350505050158015611ef2573d6000803e3d6000fd5b508073ffffffffffffffffffffffffffffffffffffffff166108fc349081150290604051600060405180830381858888f19350505050158015611f39573d6000803e3d6000fd5b50505050565b3373ffffffffffffffffffffffffffffffffffffffff16600a60009054906101000a900473ffffffffffffffffffffffffffffffffffffffff1673ffffffffffffffffffffffffffffffffffffffff1614611fcf576040517f08c379a0000000000000000000000000000000000000000000000000000000008152600401611fc690614733565b60405180910390fd5b8060098190555050565b611fea611fe4612537565b83612606565b612029576040517f08c379a00000000000000000000000000000000000000000000000000000000081526004016120209061436d565b60405180910390fd5b61203584848484612fec565b50505050565b61204361341a565b600b600083815260200190815260200160002060405180610120016040529081600082015481526020016001820160009054906101000a900473ffffffffffffffffffffffffffffffffffffffff1673ffffffffffffffffffffffffffffffffffffffff1673ffffffffffffffffffffffffffffffffffffffff1681526020016002820160009054906101000a900473ffffffffffffffffffffffffffffffffffffffff1673ffffffffffffffffffffffffffffffffffffffff1673ffffffffffffffffffffffffffffffffffffffff16815260200160038201805461212890613fe4565b80601f016020809104026020016040519081016040528092919081815260200182805461215490613fe4565b80156121a15780601f10612176576101008083540402835291602001916121a1565b820191906000526020600020905b81548152906001019060200180831161218457829003601f168201915b505050505081526020016004820180546121ba90613fe4565b80601f01602080910402602001604051908101604052809291908181526020018280546121e690613fe4565b80156122335780601f1061220857610100808354040283529160200191612233565b820191906000526020600020905b81548152906001019060200180831161221657829003601f168201915b505050505081526020016005820154815260200160068201548152602001600782015481526020016008820160009054906101000a900460ff1615151515815250509050919050565b6060612287826124cb565b6122c6576040517f08c379a00000000000000000000000000000000000000000000000000000000081526004016122bd906147c5565b60405180910390fd5b60006006600084815260200190815260200160002080546122e690613fe4565b80601f016020809104026020016040519081016040528092919081815260200182805461231290613fe4565b801561235f5780601f106123345761010080835404028352916020019161235f565b820191906000526020600020905b81548152906001019060200180831161234257829003601f168201915b505050505090506000612370613048565b905060008151036123855781925050506123c8565b6000825111156123ba5780826040516020016123a2929190614821565b604051602081830303815290604052925050506123c8565b6123c38461305f565b925050505b919050565b6000600560008473ffffffffffffffffffffffffffffffffffffffff1673ffffffffffffffffffffffffffffffffffffffff16815260200190815260200160002060008373ffffffffffffffffffffffffffffffffffffffff1673ffffffffffffffffffffffffffffffffffffffff16815260200190815260200160002060009054906101000a900460ff16905092915050565b60007f01ffc9a7000000000000000000000000000000000000000000000000000000007bffffffffffffffffffffffffffffffffffffffffffffffffffffffff1916827bffffffffffffffffffffffffffffffffffffffffffffffffffffffff1916149050919050565b60008073ffffffffffffffffffffffffffffffffffffffff166002600084815260200190815260200160002060009054906101000a900473ffffffffffffffffffffffffffffffffffffffff1673ffffffffffffffffffffffffffffffffffffffff1614159050919050565b600033905090565b816004600083815260200190815260200160002060006101000a81548173ffffffffffffffffffffffffffffffffffffffff021916908373ffffffffffffffffffffffffffffffffffffffff160217905550808273ffffffffffffffffffffffffffffffffffffffff166125b2836118bf565b73ffffffffffffffffffffffffffffffffffffffff167f8c5be1e5ebec7d5bd14f71427d1e84f3dd0314c0f7b2291e5b200ac8c7c3b92560405160405180910390a45050565b600081600001549050919050565b6000612611826124cb565b612650576040517f08c379a0000000000000000000000000000000000000000000000000000000008152600401612647906148b7565b60405180910390fd5b600061265b836118bf565b90508073ffffffffffffffffffffffffffffffffffffffff168473ffffffffffffffffffffffffffffffffffffffff16148061269d575061269c81856123cd565b5b806126db57508373ffffffffffffffffffffffffffffffffffffffff166126c38461072a565b73ffffffffffffffffffffffffffffffffffffffff16145b91505092915050565b8273ffffffffffffffffffffffffffffffffffffffff16612704826118bf565b73ffffffffffffffffffffffffffffffffffffffff161461275a576040517f08c379a000000000000000000000000000000000000000000000000000000000815260040161275190614949565b60405180910390fd5b600073ffffffffffffffffffffffffffffffffffffffff168273ffffffffffffffffffffffffffffffffffffffff16036127c9576040517f08c379a00000000000000000000000000000000000000000000000000000000081526004016127c0906149db565b60405180910390fd5b6127d4838383613106565b6127df60008261253f565b6001600360008573ffffffffffffffffffffffffffffffffffffffff1673ffffffffffffffffffffffffffffffffffffffff168152602001908152602001600020600082825461282f91906141fa565b925050819055506001600360008473ffffffffffffffffffffffffffffffffffffffff1673ffffffffffffffffffffffffffffffffffffffff1681526020019081526020016000206000828254612886919061422e565b92505081905550816002600083815260200190815260200160002060006101000a81548173ffffffffffffffffffffffffffffffffffffffff021916908373ffffffffffffffffffffffffffffffffffffffff160217905550808273ffffffffffffffffffffffffffffffffffffffff168473ffffffffffffffffffffffffffffffffffffffff167fddf252ad1be2c89b69c2b068fc378daa952ba7f163c4a11628f55a4df523b3ef60405160405180910390a461294583838361310b565b505050565b6001816000016000828254019250508190555050565b600073ffffffffffffffffffffffffffffffffffffffff168273ffffffffffffffffffffffffffffffffffffffff16036129cf576040517f08c379a00000000000000000000000000000000000000000000000000000000081526004016129c690614a47565b60405180910390fd5b6129d8816124cb565b15612a18576040517f08c379a0000000000000000000000000000000000000000000000000000000008152600401612a0f90614ab3565b60405180910390fd5b612a2460008383613106565b6001600360008473ffffffffffffffffffffffffffffffffffffffff1673ffffffffffffffffffffffffffffffffffffffff1681526020019081526020016000206000828254612a74919061422e565b92505081905550816002600083815260200190815260200160002060006101000a81548173ffffffffffffffffffffffffffffffffffffffff021916908373ffffffffffffffffffffffffffffffffffffffff160217905550808273ffffffffffffffffffffffffffffffffffffffff16600073ffffffffffffffffffffffffffffffffffffffff167fddf252ad1be2c89b69c2b068fc378daa952ba7f163c4a11628f55a4df523b3ef60405160405180910390a4612b356000838361310b565b5050565b612b42826124cb565b612b81576040517f08c379a0000000000000000000000000000000000000000000000000000000008152600401612b7890614b45565b60405180910390fd5b80600660008481526020019081526020016000209080519060200190612ba8929190613494565b505050565b60008111612bf0576040517f08c379a0000000000000000000000000000000000000000000000000000000008152600401612be790614bb1565b60405180910390fd5b6009543414612c34576040517f08c379a0000000000000000000000000000000000000000000000000000000008152600401612c2b90614523565b60405180910390fd5b6040518061012001604052808781526020013373ffffffffffffffffffffffffffffffffffffffff1681526020013073ffffffffffffffffffffffffffffffffffffffff16815260200186815260200185815260200184815260200183815260200182815260200160001515815250600b60008881526020019081526020016000206000820151816000015560208201518160010160006101000a81548173ffffffffffffffffffffffffffffffffffffffff021916908373ffffffffffffffffffffffffffffffffffffffff16021790555060408201518160020160006101000a81548173ffffffffffffffffffffffffffffffffffffffff021916908373ffffffffffffffffffffffffffffffffffffffff1602179055506060820151816003019080519060200190612d6a929190613494565b506080820151816004019080519060200190612d87929190613494565b5060a0820151816005015560c0820151816006015560e082015181600701556101008201518160080160006101000a81548160ff021916908315150217905550905050612dd53330886126e4565b857f804e7965e1b7192d8c0edbcb4d1865869267fb7638be51d6c1e20db5ab5d7a24333088888888886000604051612e14989796959493929190614bd1565b60405180910390a2505050505050565b60008160000154905060008111612e70576040517f08c379a0000000000000000000000000000000000000000000000000000000008152600401612e6790614ca9565b60405180910390fd5b6001810382600001819055505050565b8173ffffffffffffffffffffffffffffffffffffffff168373ffffffffffffffffffffffffffffffffffffffff1603612eee576040517f08c379a0000000000000000000000000000000000000000000000000000000008152600401612ee590614d15565b60405180910390fd5b80600560008573ffffffffffffffffffffffffffffffffffffffff1673ffffffffffffffffffffffffffffffffffffffff16815260200190815260200160002060008473ffffffffffffffffffffffffffffffffffffffff1673ffffffffffffffffffffffffffffffffffffffff16815260200190815260200160002060006101000a81548160ff0219169083151502179055508173ffffffffffffffffffffffffffffffffffffffff168373ffffffffffffffffffffffffffffffffffffffff167f17307eab39ab6107e8899845ad3d59bd9653f200f220920489ca2b5937696c3183604051612fdf91906135eb565b60405180910390a3505050565b612ff78484846126e4565b61300384848484613110565b613042576040517f08c379a000000000000000000000000000000000000000000000000000000000815260040161303990614da7565b60405180910390fd5b50505050565b606060405180602001604052806000815250905090565b606061306a826124cb565b6130a9576040517f08c379a00000000000000000000000000000000000000000000000000000000081526004016130a090614e39565b60405180910390fd5b60006130b3613048565b905060008151116130d357604051806020016040528060008152506130fe565b806130dd84613297565b6040516020016130ee929190614821565b6040516020818303038152906040525b915050919050565b505050565b505050565b60006131318473ffffffffffffffffffffffffffffffffffffffff166133f7565b1561328a578373ffffffffffffffffffffffffffffffffffffffff1663150b7a0261315a612537565b8786866040518563ffffffff1660e01b815260040161317c9493929190614eae565b6020604051808303816000875af19250505080156131b857506040513d601f19601f820116820180604052508101906131b59190614f0f565b60015b61323a573d80600081146131e8576040519150601f19603f3d011682016040523d82523d6000602084013e6131ed565b606091505b506000815103613232576040517f08c379a000000000000000000000000000000000000000000000000000000000815260040161322990614da7565b60405180910390fd5b805181602001fd5b63150b7a0260e01b7bffffffffffffffffffffffffffffffffffffffffffffffffffffffff1916817bffffffffffffffffffffffffffffffffffffffffffffffffffffffff19161491505061328f565b600190505b949350505050565b6060600082036132de576040518060400160405280600181526020017f300000000000000000000000000000000000000000000000000000000000000081525090506133f2565b600082905060005b600082146133105780806132f9906142b3565b915050600a826133099190614f6b565b91506132e6565b60008167ffffffffffffffff81111561332c5761332b613ad9565b5b6040519080825280601f01601f19166020018201604052801561335e5781602001600182028036833780820191505090505b5090505b600085146133eb5760018261337791906141fa565b9150600a856133869190614f9c565b6030613392919061422e565b60f81b8183815181106133a8576133a7614284565b5b60200101907effffffffffffffffffffffffffffffffffffffffffffffffffffffffffffff1916908160001a905350600a856133e49190614f6b565b9450613362565b8093505050505b919050565b6000808273ffffffffffffffffffffffffffffffffffffffff163b119050919050565b60405180610120016040528060008152602001600073ffffffffffffffffffffffffffffffffffffffff168152602001600073ffffffffffffffffffffffffffffffffffffffff16815260200160608152602001606081526020016000815260200160008152602001600081526020016000151581525090565b8280546134a090613fe4565b90600052602060002090601f0160209004810192826134c25760008555613509565b82601f106134db57805160ff1916838001178555613509565b82800160010185558215613509579182015b828111156135085782518255916020019190600101906134ed565b5b509050613516919061351a565b5090565b5b8082111561353357600081600090555060010161351b565b5090565b6000604051905090565b600080fd5b600080fd5b60007fffffffff0000000000000000000000000000000000000000000000000000000082169050919050565b6135808161354b565b811461358b57600080fd5b50565b60008135905061359d81613577565b92915050565b6000602082840312156135b9576135b8613541565b5b60006135c78482850161358e565b91505092915050565b60008115159050919050565b6135e5816135d0565b82525050565b600060208201905061360060008301846135dc565b92915050565b600081519050919050565b600082825260208201905092915050565b60005b83811015613640578082015181840152602081019050613625565b8381111561364f576000848401525b50505050565b6000601f19601f8301169050919050565b600061367182613606565b61367b8185613611565b935061368b818560208601613622565b61369481613655565b840191505092915050565b600060208201905081810360008301526136b98184613666565b905092915050565b6000819050919050565b6136d4816136c1565b81146136df57600080fd5b50565b6000813590506136f1816136cb565b92915050565b60006020828403121561370d5761370c613541565b5b600061371b848285016136e2565b91505092915050565b600073ffffffffffffffffffffffffffffffffffffffff82169050919050565b600061374f82613724565b9050919050565b61375f81613744565b82525050565b600060208201905061377a6000830184613756565b92915050565b61378981613744565b811461379457600080fd5b50565b6000813590506137a681613780565b92915050565b600080604083850312156137c3576137c2613541565b5b60006137d185828601613797565b92505060206137e2858286016136e2565b9150509250929050565b600081519050919050565b600082825260208201905092915050565b6000819050602082019050919050565b613821816136c1565b82525050565b600061383282613724565b9050919050565b61384281613827565b82525050565b600082825260208201905092915050565b600061386482613606565b61386e8185613848565b935061387e818560208601613622565b61388781613655565b840191505092915050565b61389b816135d0565b82525050565b6000610120830160008301516138ba6000860182613818565b5060208301516138cd6020860182613839565b5060408301516138e06040860182613839565b50606083015184820360608601526138f88282613859565b915050608083015184820360808601526139128282613859565b91505060a083015161392760a0860182613818565b5060c083015161393a60c0860182613818565b5060e083015161394d60e0860182613818565b50610100830151613962610100860182613892565b508091505092915050565b600061397983836138a1565b905092915050565b6000602082019050919050565b6000613999826137ec565b6139a381856137f7565b9350836020820285016139b585613808565b8060005b858110156139f157848403895281516139d2858261396d565b94506139dd83613981565b925060208a019950506001810190506139b9565b50829750879550505050505092915050565b60006020820190508181036000830152613a1d818461398e565b905092915050565b600060208284031215613a3b57613a3a613541565b5b6000613a4984828501613797565b91505092915050565b613a5b816136c1565b82525050565b6000602082019050613a766000830184613a52565b92915050565b600080600060608486031215613a9557613a94613541565b5b6000613aa386828701613797565b9350506020613ab486828701613797565b9250506040613ac5868287016136e2565b9150509250925092565b600080fd5b600080fd5b7f4e487b7100000000000000000000000000000000000000000000000000000000600052604160045260246000fd5b613b1182613655565b810181811067ffffffffffffffff82111715613b3057613b2f613ad9565b5b80604052505050565b6000613b43613537565b9050613b4f8282613b08565b919050565b600067ffffffffffffffff821115613b6f57613b6e613ad9565b5b613b7882613655565b9050602081019050919050565b82818337600083830152505050565b6000613ba7613ba284613b54565b613b39565b905082815260208101848484011115613bc357613bc2613ad4565b5b613bce848285613b85565b509392505050565b600082601f830112613beb57613bea613acf565b5b8135613bfb848260208601613b94565b91505092915050565b600080600080600060a08688031215613c2057613c1f613541565b5b600086013567ffffffffffffffff811115613c3e57613c3d613546565b5b613c4a88828901613bd6565b955050602086013567ffffffffffffffff811115613c6b57613c6a613546565b5b613c7788828901613bd6565b9450506040613c88888289016136e2565b9350506060613c99888289016136e2565b9250506080613caa888289016136e2565b9150509295509295909350565b60008060408385031215613cce57613ccd613541565b5b6000613cdc858286016136e2565b9250506020613ced858286016136e2565b9150509250929050565b613d00816135d0565b8114613d0b57600080fd5b50565b600081359050613d1d81613cf7565b92915050565b60008060408385031215613d3a57613d39613541565b5b6000613d4885828601613797565b9250506020613d5985828601613d0e565b9150509250929050565b600067ffffffffffffffff821115613d7e57613d7d613ad9565b5b613d8782613655565b9050602081019050919050565b6000613da7613da284613d63565b613b39565b905082815260208101848484011115613dc357613dc2613ad4565b5b613dce848285613b85565b509392505050565b600082601f830112613deb57613dea613acf565b5b8135613dfb848260208601613d94565b91505092915050565b60008060008060808587031215613e1e57613e1d613541565b5b6000613e2c87828801613797565b9450506020613e3d87828801613797565b9350506040613e4e878288016136e2565b925050606085013567ffffffffffffffff811115613e6f57613e6e613546565b5b613e7b87828801613dd6565b91505092959194509250565b600061012083016000830151613ea06000860182613818565b506020830151613eb36020860182613839565b506040830151613ec66040860182613839565b5060608301518482036060860152613ede8282613859565b91505060808301518482036080860152613ef88282613859565b91505060a0830151613f0d60a0860182613818565b5060c0830151613f2060c0860182613818565b5060e0830151613f3360e0860182613818565b50610100830151613f48610100860182613892565b508091505092915050565b60006020820190508181036000830152613f6d8184613e87565b905092915050565b60008060408385031215613f8c57613f8b613541565b5b6000613f9a85828601613797565b9250506020613fab85828601613797565b9150509250929050565b7f4e487b7100000000000000000000000000000000000000000000000000000000600052602260045260246000fd5b60006002820490506001821680613ffc57607f821691505b60208210810361400f5761400e613fb5565b5b50919050565b7f4552433732313a20617070726f76656420717565727920666f72206e6f6e657860008201527f697374656e7420746f6b656e0000000000000000000000000000000000000000602082015250565b6000614071602c83613611565b915061407c82614015565b604082019050919050565b600060208201905081810360008301526140a081614064565b9050919050565b7f4552433732313a20617070726f76616c20746f2063757272656e74206f776e6560008201527f7200000000000000000000000000000000000000000000000000000000000000602082015250565b6000614103602183613611565b915061410e826140a7565b604082019050919050565b60006020820190508181036000830152614132816140f6565b9050919050565b7f4552433732313a20617070726f76652063616c6c6572206973206e6f74206f7760008201527f6e6572206e6f7220617070726f76656420666f7220616c6c0000000000000000602082015250565b6000614195603883613611565b91506141a082614139565b604082019050919050565b600060208201905081810360008301526141c481614188565b9050919050565b7f4e487b7100000000000000000000000000000000000000000000000000000000600052601160045260246000fd5b6000614205826136c1565b9150614210836136c1565b925082821015614223576142226141cb565b5b828203905092915050565b6000614239826136c1565b9150614244836136c1565b9250827fffffffffffffffffffffffffffffffffffffffffffffffffffffffffffffffff03821115614279576142786141cb565b5b828201905092915050565b7f4e487b7100000000000000000000000000000000000000000000000000000000600052603260045260246000fd5b60006142be826136c1565b91507fffffffffffffffffffffffffffffffffffffffffffffffffffffffffffffffff82036142f0576142ef6141cb565b5b600182019050919050565b7f4552433732313a207472616e736665722063616c6c6572206973206e6f74206f60008201527f776e6572206e6f7220617070726f766564000000000000000000000000000000602082015250565b6000614357603183613611565b9150614362826142fb565b604082019050919050565b600060208201905081810360008301526143868161434a565b9050919050565b7f4552433732313a206f776e657220717565727920666f72206e6f6e657869737460008201527f656e7420746f6b656e0000000000000000000000000000000000000000000000602082015250565b60006143e9602983613611565b91506143f48261438d565b604082019050919050565b60006020820190508181036000830152614418816143dc565b9050919050565b7f4f6e6c79206974656d206f776e65722063616e20706572666f726d207468697360008201527f206f7065726174696f6e00000000000000000000000000000000000000000000602082015250565b600061447b602a83613611565b91506144868261441f565b604082019050919050565b600060208201905081810360008301526144aa8161446e565b9050919050565b7f5072696365206d75737420626520657175616c20746f206c697374696e67207060008201527f7269636500000000000000000000000000000000000000000000000000000000602082015250565b600061450d602483613611565b9150614518826144b1565b604082019050919050565b6000602082019050818103600083015261453c81614500565b9050919050565b7f4552433732313a2062616c616e636520717565727920666f7220746865207a6560008201527f726f206164647265737300000000000000000000000000000000000000000000602082015250565b600061459f602a83613611565b91506145aa82614543565b604082019050919050565b600060208201905081810360008301526145ce81614592565b9050919050565b60006145e0826136c1565b91506145eb836136c1565b9250817fffffffffffffffffffffffffffffffffffffffffffffffffffffffffffffffff0483118215151615614624576146236141cb565b5b828202905092915050565b7f506c65617365207375626d6974207468652061736b696e67207072696365206960008201527f6e206f7264657220746f20636f6d706c65746520746865207075726368617365602082015250565b600061468b604083613611565b91506146968261462f565b604082019050919050565b600060208201905081810360008301526146ba8161467e565b9050919050565b7f4f6e6c79206d61726b6574706c616365206f776e65722063616e20757064617460008201527f65206c697374696e672070726963652e00000000000000000000000000000000602082015250565b600061471d603083613611565b9150614728826146c1565b604082019050919050565b6000602082019050818103600083015261474c81614710565b9050919050565b7f45524337323155524953746f726167653a2055524920717565727920666f722060008201527f6e6f6e6578697374656e7420746f6b656e000000000000000000000000000000602082015250565b60006147af603183613611565b91506147ba82614753565b604082019050919050565b600060208201905081810360008301526147de816147a2565b9050919050565b600081905092915050565b60006147fb82613606565b61480581856147e5565b9350614815818560208601613622565b80840191505092915050565b600061482d82856147f0565b915061483982846147f0565b91508190509392505050565b7f4552433732313a206f70657261746f7220717565727920666f72206e6f6e657860008201527f697374656e7420746f6b656e0000000000000000000000000000000000000000602082015250565b60006148a1602c83613611565b91506148ac82614845565b604082019050919050565b600060208201905081810360008301526148d081614894565b9050919050565b7f4552433732313a207472616e736665722066726f6d20696e636f72726563742060008201527f6f776e6572000000000000000000000000000000000000000000000000000000602082015250565b6000614933602583613611565b915061493e826148d7565b604082019050919050565b6000602082019050818103600083015261496281614926565b9050919050565b7f4552433732313a207472616e7366657220746f20746865207a65726f2061646460008201527f7265737300000000000000000000000000000000000000000000000000000000602082015250565b60006149c5602483613611565b91506149d082614969565b604082019050919050565b600060208201905081810360008301526149f4816149b8565b9050919050565b7f4552433732313a206d696e7420746f20746865207a65726f2061646472657373600082015250565b6000614a31602083613611565b9150614a3c826149fb565b602082019050919050565b60006020820190508181036000830152614a6081614a24565b9050919050565b7f4552433732313a20746f6b656e20616c7265616479206d696e74656400000000600082015250565b6000614a9d601c83613611565b9150614aa882614a67565b602082019050919050565b60006020820190508181036000830152614acc81614a90565b9050919050565b7f45524337323155524953746f726167653a2055524920736574206f66206e6f6e60008201527f6578697374656e7420746f6b656e000000000000000000000000000000000000602082015250565b6000614b2f602e83613611565b9150614b3a82614ad3565b604082019050919050565b60006020820190508181036000830152614b5e81614b22565b9050919050565b7f5072696365206d757374206265206174206c6561737420312077656900000000600082015250565b6000614b9b601c83613611565b9150614ba682614b65565b602082019050919050565b60006020820190508181036000830152614bca81614b8e565b9050919050565b600061010082019050614be7600083018b613756565b614bf4602083018a613756565b8181036040830152614c068189613666565b90508181036060830152614c1a8188613666565b9050614c296080830187613a52565b614c3660a0830186613a52565b614c4360c0830185613a52565b614c5060e08301846135dc565b9998505050505050505050565b7f436f756e7465723a2064656372656d656e74206f766572666c6f770000000000600082015250565b6000614c93601b83613611565b9150614c9e82614c5d565b602082019050919050565b60006020820190508181036000830152614cc281614c86565b9050919050565b7f4552433732313a20617070726f766520746f2063616c6c657200000000000000600082015250565b6000614cff601983613611565b9150614d0a82614cc9565b602082019050919050565b60006020820190508181036000830152614d2e81614cf2565b9050919050565b7f4552433732313a207472616e7366657220746f206e6f6e20455243373231526560008201527f63656976657220696d706c656d656e7465720000000000000000000000000000602082015250565b6000614d91603283613611565b9150614d9c82614d35565b604082019050919050565b60006020820190508181036000830152614dc081614d84565b9050919050565b7f4552433732314d657461646174613a2055524920717565727920666f72206e6f60008201527f6e6578697374656e7420746f6b656e0000000000000000000000000000000000602082015250565b6000614e23602f83613611565b9150614e2e82614dc7565b604082019050919050565b60006020820190508181036000830152614e5281614e16565b9050919050565b600081519050919050565b600082825260208201905092915050565b6000614e8082614e59565b614e8a8185614e64565b9350614e9a818560208601613622565b614ea381613655565b840191505092915050565b6000608082019050614ec36000830187613756565b614ed06020830186613756565b614edd6040830185613a52565b8181036060830152614eef8184614e75565b905095945050505050565b600081519050614f0981613577565b92915050565b600060208284031215614f2557614f24613541565b5b6000614f3384828501614efa565b91505092915050565b7f4e487b7100000000000000000000000000000000000000000000000000000000600052601260045260246000fd5b6000614f76826136c1565b9150614f81836136c1565b925082614f9157614f90614f3c565b5b828204905092915050565b6000614fa7826136c1565b9150614fb2836136c1565b925082614fc257614fc1614f3c565b5b82820690509291505056fea26469706673582212204e652996a26836091aa464899e7b3462a29e222b67de4d7150fd904e69c8a89f64736f6c634300080e0033",
  "immutableReferences": {},
  "source": "// SPDX-License-Identifier: MIT\npragma solidity ^0.8.4;\n\n// pragma solidity >=0.4.22 <0.9.0;\n\nimport \"@openzeppelin/contracts/utils/Counters.sol\";\nimport \"@openzeppelin/contracts/token/ERC721/extensions/ERC721URIStorage.sol\";\nimport \"@openzeppelin/contracts/token/ERC721/ERC721.sol\";\n\ncontract NFTMarketplace is ERC721URIStorage {\n    using Counters for Counters.Counter;\n    Counters.Counter private _tokenIds;\n    Counters.Counter private _itemsSold;\n\n    uint256 listingPrice = 1 ether;\n    address payable owner;\n\n    mapping(uint256 => Land) private LandItemsMapping;\n\n    struct Land {\n      uint256 tokenId;\n      address payable seller;\n      address payable owner;\n      string uri;\n      string landName;\n      uint256 lat;\n      uint256 lon;\n      uint256 price;\n      bool sold;\n    }\n\n    event MarketItemCreated (\n      uint256 indexed tokenId,\n      address seller,\n      address owner,\n      string uri,\n      string landName,\n      uint256 lat,\n      uint256 lon,\n      uint256 price,\n      bool sold\n    );\n\n    constructor() ERC721(\"Metaverse Tokens\", \"METT\") {\n      owner = payable(msg.sender);\n    }\n\n\n\n\n\n\n    // ** TOKEN CREATION START **\n    /* Mints a token and lists it in the marketplace */\n    function CreateLandToken(string memory tokenURI, string memory landName, uint256 lat, uint256 lon, uint256 price) public payable returns (uint) \n    {\n      _tokenIds.increment();\n      uint256 newTokenId = _tokenIds.current();\n\n      _mint(msg.sender, newTokenId);\n      _setTokenURI(newTokenId, tokenURI);\n      createMarketItem(newTokenId, tokenURI ,landName, lat, lon, price  );\n      return newTokenId;\n    }\n\n    function createMarketItem( uint256 tokenId,string memory uri,string memory landName, uint256 lat, uint256 lon ,uint256 price ) private \n    {\n      require(price > 0, \"Price must be at least 1 wei\");\n      require(msg.value == listingPrice, \"Price must be equal to listing price\");\n\n      LandItemsMapping[tokenId] =  Land(\n        tokenId,\n        payable(msg.sender), //seller\n        payable(address(this)), //owner\n        uri,\n        landName,\n        lat,\n        lon,\n        price,\n        false\n      );\n\n      _transfer(msg.sender, address(this), tokenId);\n      emit MarketItemCreated(\n        tokenId,\n        msg.sender,\n        address(this),\n        uri,\n        landName,\n        lat,\n        lon,\n        price,\n        false\n      );\n    }\n    // ** TOKEN CREATION END **\n\n\n\n\n\n\n\n\n\n    /* allows someone to resell a token they have purchased */\n    function SellYourLandToken(uint256 tokenId, uint256 price) public payable \n    {\n      require(LandItemsMapping[tokenId].owner == msg.sender, \"Only item owner can perform this operation\");\n      require(msg.value == listingPrice, \"Price must be equal to listing price\");\n      LandItemsMapping[tokenId].sold = false;\n      LandItemsMapping[tokenId].price = price;\n      LandItemsMapping[tokenId].seller = payable(msg.sender);\n      LandItemsMapping[tokenId].owner = payable(address(this));\n      _itemsSold.decrement();\n\n      _transfer(msg.sender, address(this), tokenId);\n    }\n\n    /* Creates the sale of a marketplace item */\n    /* Transfers ownership of the item, as well as funds between parties */\n    function BuyLandToken( uint256 tokenId ) public payable \n    {\n      uint price = LandItemsMapping[tokenId].price;\n      address seller = LandItemsMapping[tokenId].seller;\n      require(msg.value == price * 10**18 , \"Please submit the asking price in order to complete the purchase\");\n      LandItemsMapping[tokenId].owner = payable(msg.sender);\n      LandItemsMapping[tokenId].sold = true;\n      LandItemsMapping[tokenId].seller = payable(address(0));\n      _itemsSold.increment();\n      _transfer(address(this), msg.sender, tokenId);\n      payable(owner).transfer(listingPrice);\n      payable(seller).transfer(msg.value);\n    }\n\n\n\n\n\n\n\n\n\n\n\n\n\n    // ************** utility functions **************\n    /* Returns owner of the contract or metavers */\n    function getOwnerOfMeta() public view returns (address) \n    {\n      return owner;\n    }\n\n    /* Updates the listing price of the contract */\n    function updateListingPrice(uint _listingPrice) public payable \n    {\n      require(owner == msg.sender, \"Only marketplace owner can update listing price.\");\n      listingPrice = _listingPrice;\n    }\n\n    /* Returns the listing price of the contract */\n    function getListingPrice() public view returns (uint256) \n    {\n      return listingPrice;\n    }\n\n    /* Returns the full details of the corresponding tokenid */\n    function getTokenDetails(uint256 _tokenId) public view returns(Land memory)\n    {\n      return LandItemsMapping[_tokenId];\n    }\n\n    /* fetches all available land tokens   */\n    function fetchAllTokens() public view returns (Land[] memory) \n    {\n      uint totalItemCount = _tokenIds.current();\n      uint itemCount = 0;\n      uint currentIndex = 0;\n\n      for (uint i = 0; i < totalItemCount; i++) {\n          itemCount += 1;\n      }\n\n      Land[] memory items = new Land[](itemCount);\n\n      for (uint i = 0; i < totalItemCount; i++) \n      {\n          uint currentId = i + 1;\n          Land storage currentItem = LandItemsMapping[currentId];\n          items[currentIndex] = currentItem;\n          currentIndex += 1;\n        \n      }\n      return items;\n    }\n\n\n\n\n\n\n\n    /* Returns all unsold market items */\n    function fetchMarketItems() public view returns (Land[] memory) \n    {\n      uint itemCount = _tokenIds.current();\n      uint unsoldItemCount = _tokenIds.current() - _itemsSold.current();\n      uint currentIndex = 0;\n\n      Land[] memory items = new Land[](unsoldItemCount);\n      for (uint i = 0; i < itemCount; i++) {\n        if (LandItemsMapping[i + 1].owner == address(this)) {\n          uint currentId = i + 1;\n          Land storage currentItem = LandItemsMapping[currentId];\n          items[currentIndex] = currentItem;\n          currentIndex += 1;\n        }\n      }\n      return items;\n    }\n\n    /* Returns only items that a user has purchased */\n    function fetchMyNFTs(address _owner_address) public view returns (Land[] memory) \n    {\n      uint totalItemCount = _tokenIds.current();\n      uint itemCount = 0;\n      uint currentIndex = 0;\n\n      for (uint i = 0; i < totalItemCount; i++) {\n        if (LandItemsMapping[i + 1].owner == _owner_address) {\n          itemCount += 1;\n        }\n      }\n\n      Land[] memory items = new Land[](itemCount);\n      for (uint i = 0; i < totalItemCount; i++) {\n        if (LandItemsMapping[i + 1].owner == _owner_address) {\n          uint currentId = i + 1;\n          Land storage currentItem = LandItemsMapping[currentId];\n          items[currentIndex] = currentItem;\n          currentIndex += 1;\n        }\n      }\n      return items;\n    }\n\n    /* Returns only items a user has listed */\n    function fetchItemsListed() public view returns (Land[] memory) \n    {\n      uint totalItemCount = _tokenIds.current();\n      uint itemCount = 0;\n      uint currentIndex = 0;\n\n      for (uint i = 0; i < totalItemCount; i++) {\n        if (LandItemsMapping[i + 1].seller == msg.sender) {\n          itemCount += 1;\n        }\n      }\n\n      Land[] memory items = new Land[](itemCount);\n      for (uint i = 0; i < totalItemCount; i++) {\n        if (LandItemsMapping[i + 1].seller == msg.sender) {\n          uint currentId = i + 1;\n          Land storage currentItem = LandItemsMapping[currentId];\n          items[currentIndex] = currentItem;\n          currentIndex += 1;\n        }\n      }\n      return items;\n    }\n}\n",
  "sourcePath": "C:\\Users\\DELL\\Downloads\\Meta\\contracts\\NFTMarketplace.sol",
  "compiler": {
    "name": "solc",
    "version": "0.8.14+commit.80d49f37.Emscripten.clang"
  },
  "schemaVersion": "3.4.4",
  "updatedAt": "2022-06-27T00:25:30.963Z",
  "networkType": "ethereum",
  "devdoc": {
    "kind": "dev",
    "methods": {
      "approve(address,uint256)": {
        "details": "See {IERC721-approve}."
      },
      "balanceOf(address)": {
        "details": "See {IERC721-balanceOf}."
      },
      "getApproved(uint256)": {
        "details": "See {IERC721-getApproved}."
      },
      "isApprovedForAll(address,address)": {
        "details": "See {IERC721-isApprovedForAll}."
      },
      "name()": {
        "details": "See {IERC721Metadata-name}."
      },
      "ownerOf(uint256)": {
        "details": "See {IERC721-ownerOf}."
      },
      "safeTransferFrom(address,address,uint256)": {
        "details": "See {IERC721-safeTransferFrom}."
      },
      "safeTransferFrom(address,address,uint256,bytes)": {
        "details": "See {IERC721-safeTransferFrom}."
      },
      "setApprovalForAll(address,bool)": {
        "details": "See {IERC721-setApprovalForAll}."
      },
      "supportsInterface(bytes4)": {
        "details": "See {IERC165-supportsInterface}."
      },
      "symbol()": {
        "details": "See {IERC721Metadata-symbol}."
      },
      "tokenURI(uint256)": {
        "details": "See {IERC721Metadata-tokenURI}."
      },
      "transferFrom(address,address,uint256)": {
        "details": "See {IERC721-transferFrom}."
      }
    },
    "version": 1
  },
  "userdoc": {
    "kind": "user",
    "methods": {},
    "version": 1
  }
}